{
  "contractName": "TokenFarm",
  "abi": [
    {
      "inputs": [
        {
          "internalType": "contract XToken",
          "name": "_xToken",
          "type": "address"
        },
        {
          "internalType": "contract DaiToken",
          "name": "_daiToken",
          "type": "address"
        },
        {
          "internalType": "uint256",
          "name": "_blockReward",
          "type": "uint256"
        }
      ],
      "stateMutability": "nonpayable",
      "type": "constructor"
    },
    {
      "inputs": [],
      "name": "daiToken",
      "outputs": [
        {
          "internalType": "contract DaiToken",
          "name": "",
          "type": "address"
        }
      ],
      "stateMutability": "view",
      "type": "function",
      "constant": true
    },
    {
      "inputs": [],
      "name": "duration",
      "outputs": [
        {
          "internalType": "uint256",
          "name": "",
          "type": "uint256"
        }
      ],
      "stateMutability": "view",
      "type": "function",
      "constant": true
    },
    {
      "inputs": [],
      "name": "farmInfo",
      "outputs": [
        {
          "internalType": "uint256",
          "name": "blockReward",
          "type": "uint256"
        },
        {
          "internalType": "uint256",
          "name": "lastRewardBlock",
          "type": "uint256"
        },
        {
          "internalType": "uint256",
          "name": "farmableSupply",
          "type": "uint256"
        }
      ],
      "stateMutability": "view",
      "type": "function",
      "constant": true
    },
    {
      "inputs": [
        {
          "internalType": "address",
          "name": "",
          "type": "address"
        }
      ],
      "name": "hasStaked",
      "outputs": [
        {
          "internalType": "bool",
          "name": "",
          "type": "bool"
        }
      ],
      "stateMutability": "view",
      "type": "function",
      "constant": true
    },
    {
      "inputs": [
        {
          "internalType": "address",
          "name": "",
          "type": "address"
        }
      ],
      "name": "isStaking",
      "outputs": [
        {
          "internalType": "bool",
          "name": "",
          "type": "bool"
        }
      ],
      "stateMutability": "view",
      "type": "function",
      "constant": true
    },
    {
      "inputs": [],
      "name": "name",
      "outputs": [
        {
          "internalType": "string",
          "name": "",
          "type": "string"
        }
      ],
      "stateMutability": "view",
      "type": "function",
      "constant": true
    },
    {
      "inputs": [],
      "name": "owner",
      "outputs": [
        {
          "internalType": "address",
          "name": "",
          "type": "address"
        }
      ],
      "stateMutability": "view",
      "type": "function",
      "constant": true
    },
    {
      "inputs": [],
      "name": "penaltyRate",
      "outputs": [
        {
          "internalType": "uint256",
          "name": "",
          "type": "uint256"
        }
      ],
      "stateMutability": "view",
      "type": "function",
      "constant": true
    },
    {
      "inputs": [
        {
          "internalType": "address",
          "name": "",
          "type": "address"
        }
      ],
      "name": "poolShareRatio",
      "outputs": [
        {
          "internalType": "uint256",
          "name": "",
          "type": "uint256"
        }
      ],
      "stateMutability": "view",
      "type": "function",
      "constant": true
    },
    {
      "inputs": [
        {
          "internalType": "uint256",
          "name": "",
          "type": "uint256"
        }
      ],
      "name": "stakers",
      "outputs": [
        {
          "internalType": "address",
          "name": "",
          "type": "address"
        }
      ],
      "stateMutability": "view",
      "type": "function",
      "constant": true
    },
    {
      "inputs": [
        {
          "internalType": "address",
          "name": "",
          "type": "address"
        }
      ],
      "name": "stakingBalance",
      "outputs": [
        {
          "internalType": "uint256",
          "name": "",
          "type": "uint256"
        }
      ],
      "stateMutability": "view",
      "type": "function",
      "constant": true
    },
    {
      "inputs": [
        {
          "internalType": "address",
          "name": "",
          "type": "address"
        }
      ],
      "name": "stakingTimestamp",
      "outputs": [
        {
          "internalType": "uint256",
          "name": "",
          "type": "uint256"
        }
      ],
      "stateMutability": "view",
      "type": "function",
      "constant": true
    },
    {
      "inputs": [],
      "name": "xToken",
      "outputs": [
        {
          "internalType": "contract XToken",
          "name": "",
          "type": "address"
        }
      ],
      "stateMutability": "view",
      "type": "function",
      "constant": true
    },
    {
      "inputs": [
        {
          "internalType": "uint256",
          "name": "_amount",
          "type": "uint256"
        }
      ],
      "name": "stakeTokens",
      "outputs": [],
      "stateMutability": "nonpayable",
      "type": "function"
    },
    {
      "inputs": [],
      "name": "unstakeTokens",
      "outputs": [],
      "stateMutability": "nonpayable",
      "type": "function"
    },
    {
      "inputs": [
        {
          "internalType": "uint256",
          "name": "_amount",
          "type": "uint256"
        }
      ],
      "name": "issueTokens",
      "outputs": [],
      "stateMutability": "nonpayable",
      "type": "function"
    },
    {
      "inputs": [],
      "name": "emergencyUnstakeTokens",
      "outputs": [],
      "stateMutability": "nonpayable",
      "type": "function"
    },
    {
      "inputs": [],
      "name": "getTotalBalance",
      "outputs": [],
      "stateMutability": "nonpayable",
      "type": "function"
    },
    {
      "inputs": [],
      "name": "getPoolShareRatio",
      "outputs": [],
      "stateMutability": "nonpayable",
      "type": "function"
    }
  ],
  "bytecode": "0x60806040526040518060400160405280600c81526020017f5820546f6b656e204661726d0000000000000000000000000000000000000000815250600090805190602001906200005192919062000160565b5060026005553480156200006457600080fd5b506040516200250b3803806200250b83398181016040528101906200008a919062000255565b82600160006101000a81548173ffffffffffffffffffffffffffffffffffffffff021916908373ffffffffffffffffffffffffffffffffffffffff16021790555081600260006101000a81548173ffffffffffffffffffffffffffffffffffffffff021916908373ffffffffffffffffffffffffffffffffffffffff1602179055508060066000018190555033600360006101000a81548173ffffffffffffffffffffffffffffffffffffffff021916908373ffffffffffffffffffffffffffffffffffffffff160217905550505050620003c4565b8280546200016e9062000311565b90600052602060002090601f016020900481019282620001925760008555620001de565b82601f10620001ad57805160ff1916838001178555620001de565b82800160010185558215620001de579182015b82811115620001dd578251825591602001919060010190620001c0565b5b509050620001ed9190620001f1565b5090565b5b808211156200020c576000816000905550600101620001f2565b5090565b600081519050620002218162000376565b92915050565b600081519050620002388162000390565b92915050565b6000815190506200024f81620003aa565b92915050565b6000806000606084860312156200026b57600080fd5b60006200027b8682870162000227565b93505060206200028e8682870162000210565b9250506040620002a1868287016200023e565b9150509250925092565b6000620002b882620002e7565b9050919050565b6000620002cc82620002ab565b9050919050565b6000620002e082620002ab565b9050919050565b600073ffffffffffffffffffffffffffffffffffffffff82169050919050565b6000819050919050565b600060028204905060018216806200032a57607f821691505b6020821081141562000341576200034062000347565b5b50919050565b7f4e487b7100000000000000000000000000000000000000000000000000000000600052602260045260246000fd5b6200038181620002bf565b81146200038d57600080fd5b50565b6200039b81620002d3565b8114620003a757600080fd5b50565b620003b58162000307565b8114620003c157600080fd5b50565b61213780620003d46000396000f3fe608060405234801561001057600080fd5b50600436106101215760003560e01c80637547c7a3116100ad578063a5ce413b11610071578063a5ce413b146102d4578063be22f546146102de578063c93c8f34146102fc578063d6b7494f1461032c578063fd5e6dd11461034a57610121565b80637547c7a3146102445780638da5cb5b146102605780638f0794fe1461027e578063a179b812146102ae578063a5820daa146102b857610121565b806312b58349116100f457806312b583491461018a5780631d49d66c1461019457806345bc78ab146101b45780635bb7f6f5146101e45780636f49712b1461021457610121565b806306fdde0314610126578063088b699e146101445780630d7a70d4146101625780630fb5a6b41461016c575b600080fd5b61012e61037a565b60405161013b9190611cbb565b60405180910390f35b61014c610408565b6040516101599190611ca0565b60405180910390f35b61016a61042e565b005b610174610650565b6040516101819190611d5d565b60405180910390f35b610192610657565b005b61019c61074a565b6040516101ab93929190611d78565b60405180910390f35b6101ce60048036038101906101c991906119f0565b610762565b6040516101db9190611d5d565b60405180910390f35b6101fe60048036038101906101f991906119f0565b61077a565b60405161020b9190611d5d565b60405180910390f35b61022e600480360381019061022991906119f0565b610792565b60405161023b9190611c6a565b60405180910390f35b61025e60048036038101906102599190611a42565b6107b2565b005b610268610bc6565b6040516102759190611bef565b60405180910390f35b610298600480360381019061029391906119f0565b610bec565b6040516102a59190611d5d565b60405180910390f35b6102b6610c04565b005b6102d260048036038101906102cd9190611a42565b610f7c565b005b6102dc6112f8565b005b6102e6611627565b6040516102f39190611c85565b60405180910390f35b610316600480360381019061031191906119f0565b61164d565b6040516103239190611c6a565b60405180910390f35b61033461166d565b6040516103419190611d5d565b60405180910390f35b610364600480360381019061035f9190611a42565b611672565b6040516103719190611bef565b60405180910390f35b6000805461038790611fa3565b80601f01602080910402602001604051908101604052809291908181526020018280546103b390611fa3565b80156104005780601f106103d557610100808354040283529160200191610400565b820191906000526020600020905b8154815290600101906020018083116103e357829003601f168201915b505050505081565b600160009054906101000a900473ffffffffffffffffffffffffffffffffffffffff1681565b600060066002015414156105145760005b60048054905081101561050e57600060048281548110610488577f4e487b7100000000000000000000000000000000000000000000000000000000600052603260045260246000fd5b9060005260206000200160009054906101000a900473ffffffffffffffffffffffffffffffffffffffff1690506000600d60008373ffffffffffffffffffffffffffffffffffffffff1673ffffffffffffffffffffffffffffffffffffffff1681526020019081526020016000208190555050808061050690611fd5565b91505061043f565b5061064e565b60005b60048054905081101561064c57600060048281548110610560577f4e487b7100000000000000000000000000000000000000000000000000000000600052603260045260246000fd5b9060005260206000200160009054906101000a900473ffffffffffffffffffffffffffffffffffffffff1690506000600960008373ffffffffffffffffffffffffffffffffffffffff1673ffffffffffffffffffffffffffffffffffffffff16815260200190815260200160002054905060006006600201546064836105e69190611e52565b6105f09190611e21565b905080600d60008573ffffffffffffffffffffffffffffffffffffffff1673ffffffffffffffffffffffffffffffffffffffff16815260200190815260200160002081905550505050808061064490611fd5565b915050610517565b505b565b6201518081565b600080600090505b60048054905081101561073c576000600482815481106106a8577f4e487b7100000000000000000000000000000000000000000000000000000000600052603260045260246000fd5b9060005260206000200160009054906101000a900473ffffffffffffffffffffffffffffffffffffffff1690506000600960008373ffffffffffffffffffffffffffffffffffffffff1673ffffffffffffffffffffffffffffffffffffffff16815260200190815260200160002054905083816107259190611dcb565b93505050808061073490611fd5565b91505061065f565b508060066002018190555050565b60068060000154908060010154908060020154905083565b60096020528060005260406000206000915090505481565b600d6020528060005260406000206000915090505481565b600c6020528060005260406000206000915054906101000a900460ff1681565b600081116107f5576040517f08c379a00000000000000000000000000000000000000000000000000000000081526004016107ec90611d3d565b60405180910390fd5b6108036006600001546116b1565b600260009054906101000a900473ffffffffffffffffffffffffffffffffffffffff1673ffffffffffffffffffffffffffffffffffffffff166323b872dd3330846040518463ffffffff1660e01b815260040161086293929190611c0a565b602060405180830381600087803b15801561087c57600080fd5b505af1158015610890573d6000803e3d6000fd5b505050506040513d601f19601f820116820180604052508101906108b49190611a19565b5080600960003373ffffffffffffffffffffffffffffffffffffffff1673ffffffffffffffffffffffffffffffffffffffff168152602001908152602001600020546109009190611dcb565b600960003373ffffffffffffffffffffffffffffffffffffffff1673ffffffffffffffffffffffffffffffffffffffff1681526020019081526020016000208190555042600a60003373ffffffffffffffffffffffffffffffffffffffff1673ffffffffffffffffffffffffffffffffffffffff1681526020019081526020016000208190555043600660010181905550600b60003373ffffffffffffffffffffffffffffffffffffffff1673ffffffffffffffffffffffffffffffffffffffff16815260200190815260200160002060009054906101000a900460ff16610a46576004339080600181540180825580915050600190039060005260206000200160009091909190916101000a81548173ffffffffffffffffffffffffffffffffffffffff021916908373ffffffffffffffffffffffffffffffffffffffff1602179055505b6001600c60003373ffffffffffffffffffffffffffffffffffffffff1673ffffffffffffffffffffffffffffffffffffffff16815260200190815260200160002060006101000a81548160ff0219169083151502179055506001600b60003373ffffffffffffffffffffffffffffffffffffffff1673ffffffffffffffffffffffffffffffffffffffff16815260200190815260200160002060006101000a81548160ff021916908315150217905550600160009054906101000a900473ffffffffffffffffffffffffffffffffffffffff1673ffffffffffffffffffffffffffffffffffffffff1663a9059cbb3360055484610b439190611e52565b6040518363ffffffff1660e01b8152600401610b60929190611c41565b602060405180830381600087803b158015610b7a57600080fd5b505af1158015610b8e573d6000803e3d6000fd5b505050506040513d601f19601f82011682018060405250810190610bb29190611a19565b50610bbb610657565b610bc361042e565b50565b600360009054906101000a900473ffffffffffffffffffffffffffffffffffffffff1681565b600a6020528060005260406000206000915090505481565b6000600960003373ffffffffffffffffffffffffffffffffffffffff1673ffffffffffffffffffffffffffffffffffffffff16815260200190815260200160002054905060008111610c8b576040517f08c379a0000000000000000000000000000000000000000000000000000000008152600401610c8290611cdd565b60405180910390fd5b60006064601483610c9c9190611e52565b610ca69190611e21565b905060008183610cb69190611eac565b9050600260009054906101000a900473ffffffffffffffffffffffffffffffffffffffff1673ffffffffffffffffffffffffffffffffffffffff1663a9059cbb33836040518363ffffffff1660e01b8152600401610d15929190611c41565b602060405180830381600087803b158015610d2f57600080fd5b505af1158015610d43573d6000803e3d6000fd5b505050506040513d601f19601f82011682018060405250810190610d679190611a19565b50600260009054906101000a900473ffffffffffffffffffffffffffffffffffffffff1673ffffffffffffffffffffffffffffffffffffffff1663a9059cbb30846040518363ffffffff1660e01b8152600401610dc5929190611c41565b602060405180830381600087803b158015610ddf57600080fd5b505af1158015610df3573d6000803e3d6000fd5b505050506040513d601f19601f82011682018060405250810190610e179190611a19565b50600160009054906101000a900473ffffffffffffffffffffffffffffffffffffffff1673ffffffffffffffffffffffffffffffffffffffff166323b872dd3330866040518463ffffffff1660e01b8152600401610e7793929190611c0a565b602060405180830381600087803b158015610e9157600080fd5b505af1158015610ea5573d6000803e3d6000fd5b505050506040513d601f19601f82011682018060405250810190610ec99190611a19565b506000600960003373ffffffffffffffffffffffffffffffffffffffff1673ffffffffffffffffffffffffffffffffffffffff168152602001908152602001600020819055506000600c60003373ffffffffffffffffffffffffffffffffffffffff1673ffffffffffffffffffffffffffffffffffffffff16815260200190815260200160002060006101000a81548160ff021916908315150217905550610f6f610657565b610f7761042e565b505050565b60008111610fbf576040517f08c379a0000000000000000000000000000000000000000000000000000000008152600401610fb690611d3d565b60405180910390fd5b600360009054906101000a900473ffffffffffffffffffffffffffffffffffffffff1673ffffffffffffffffffffffffffffffffffffffff163373ffffffffffffffffffffffffffffffffffffffff161461104f576040517f08c379a000000000000000000000000000000000000000000000000000000000815260040161104690611d1d565b60405180910390fd5b611057610657565b60005b6004805490508110156112ea576000600482815481106110a3577f4e487b7100000000000000000000000000000000000000000000000000000000600052603260045260246000fd5b9060005260206000200160009054906101000a900473ffffffffffffffffffffffffffffffffffffffff1690506000600960008373ffffffffffffffffffffffffffffffffffffffff1673ffffffffffffffffffffffffffffffffffffffff16815260200190815260200160002054905060006006600201546064836111299190611e52565b6111339190611e21565b90506000606482876111459190611e52565b61114f9190611e21565b905060004390506000600660010154826111699190611eac565b9050600081846111799190611e52565b905060008111156112d05780600960008973ffffffffffffffffffffffffffffffffffffffff1673ffffffffffffffffffffffffffffffffffffffff168152602001908152602001600020546111cf9190611dcb565b600960008973ffffffffffffffffffffffffffffffffffffffff1673ffffffffffffffffffffffffffffffffffffffff16815260200190815260200160002081905550600160009054906101000a900473ffffffffffffffffffffffffffffffffffffffff1673ffffffffffffffffffffffffffffffffffffffff1663a9059cbb886005548c61125f9190611e52565b6040518363ffffffff1660e01b815260040161127c929190611c41565b602060405180830381600087803b15801561129657600080fd5b505af11580156112aa573d6000803e3d6000fd5b505050506040513d601f19601f820116820180604052508101906112ce9190611a19565b505b5050505050505080806112e290611fd5565b91505061105a565b504360066001018190555050565b6000600960003373ffffffffffffffffffffffffffffffffffffffff1673ffffffffffffffffffffffffffffffffffffffff1681526020019081526020016000205490506000811161137f576040517f08c379a000000000000000000000000000000000000000000000000000000000815260040161137690611cdd565b60405180910390fd5b600062015180600a60003373ffffffffffffffffffffffffffffffffffffffff1673ffffffffffffffffffffffffffffffffffffffff168152602001908152602001600020546113cf9190611dcb565b905080421015611414576040517f08c379a000000000000000000000000000000000000000000000000000000000815260040161140b90611cfd565b60405180910390fd5b600260009054906101000a900473ffffffffffffffffffffffffffffffffffffffff1673ffffffffffffffffffffffffffffffffffffffff1663a9059cbb33846040518363ffffffff1660e01b8152600401611471929190611c41565b602060405180830381600087803b15801561148b57600080fd5b505af115801561149f573d6000803e3d6000fd5b505050506040513d601f19601f820116820180604052508101906114c39190611a19565b50600160009054906101000a900473ffffffffffffffffffffffffffffffffffffffff1673ffffffffffffffffffffffffffffffffffffffff166323b872dd3330856040518463ffffffff1660e01b815260040161152393929190611c0a565b602060405180830381600087803b15801561153d57600080fd5b505af1158015611551573d6000803e3d6000fd5b505050506040513d601f19601f820116820180604052508101906115759190611a19565b506000600960003373ffffffffffffffffffffffffffffffffffffffff1673ffffffffffffffffffffffffffffffffffffffff168152602001908152602001600020819055506000600c60003373ffffffffffffffffffffffffffffffffffffffff1673ffffffffffffffffffffffffffffffffffffffff16815260200190815260200160002060006101000a81548160ff02191690831515021790555061161b610657565b61162361042e565b5050565b600260009054906101000a900473ffffffffffffffffffffffffffffffffffffffff1681565b600b6020528060005260406000206000915054906101000a900460ff1681565b601481565b6004818154811061168257600080fd5b906000526020600020016000915054906101000a900473ffffffffffffffffffffffffffffffffffffffff1681565b600081116116f4576040517f08c379a00000000000000000000000000000000000000000000000000000000081526004016116eb90611d3d565b60405180910390fd5b6116fc610657565b6000600660020154141561170f576119ae565b60005b6004805490508110156119a25760006004828154811061175b577f4e487b7100000000000000000000000000000000000000000000000000000000600052603260045260246000fd5b9060005260206000200160009054906101000a900473ffffffffffffffffffffffffffffffffffffffff1690506000600960008373ffffffffffffffffffffffffffffffffffffffff1673ffffffffffffffffffffffffffffffffffffffff16815260200190815260200160002054905060006006600201546064836117e19190611e52565b6117eb9190611e21565b90506000606482876117fd9190611e52565b6118079190611e21565b905060004390506000600660010154826118219190611eac565b9050600081846118319190611e52565b905060008111156119885780600960008973ffffffffffffffffffffffffffffffffffffffff1673ffffffffffffffffffffffffffffffffffffffff168152602001908152602001600020546118879190611dcb565b600960008973ffffffffffffffffffffffffffffffffffffffff1673ffffffffffffffffffffffffffffffffffffffff16815260200190815260200160002081905550600160009054906101000a900473ffffffffffffffffffffffffffffffffffffffff1673ffffffffffffffffffffffffffffffffffffffff1663a9059cbb88600554846119179190611e52565b6040518363ffffffff1660e01b8152600401611934929190611c41565b602060405180830381600087803b15801561194e57600080fd5b505af1158015611962573d6000803e3d6000fd5b505050506040513d601f19601f820116820180604052508101906119869190611a19565b505b50505050505050808061199a90611fd5565b915050611712565b50436006600101819055505b50565b6000813590506119c0816120bc565b92915050565b6000815190506119d5816120d3565b92915050565b6000813590506119ea816120ea565b92915050565b600060208284031215611a0257600080fd5b6000611a10848285016119b1565b91505092915050565b600060208284031215611a2b57600080fd5b6000611a39848285016119c6565b91505092915050565b600060208284031215611a5457600080fd5b6000611a62848285016119db565b91505092915050565b611a7481611ee0565b82525050565b611a8381611ef2565b82525050565b611a9281611f28565b82525050565b611aa181611f4c565b82525050565b6000611ab282611daf565b611abc8185611dba565b9350611acc818560208601611f70565b611ad5816120ab565b840191505092915050565b6000611aed601b83611dba565b91507f7374616b696e672062616c616e63652063616e6e6f74206265203000000000006000830152602082019050919050565b6000611b2d601c83611dba565b91507f746f6f206561726c7920746f20776974686472617720546f6b656e73000000006000830152602082019050919050565b6000611b6d601483611dba565b91507f63616c6c6572206d757374206265206f776e65720000000000000000000000006000830152602082019050919050565b6000611bad601283611dba565b91507f616d6f756e742063616e6e6f74206265203000000000000000000000000000006000830152602082019050919050565b611be981611f1e565b82525050565b6000602082019050611c046000830184611a6b565b92915050565b6000606082019050611c1f6000830186611a6b565b611c2c6020830185611a6b565b611c396040830184611be0565b949350505050565b6000604082019050611c566000830185611a6b565b611c636020830184611be0565b9392505050565b6000602082019050611c7f6000830184611a7a565b92915050565b6000602082019050611c9a6000830184611a89565b92915050565b6000602082019050611cb56000830184611a98565b92915050565b60006020820190508181036000830152611cd58184611aa7565b905092915050565b60006020820190508181036000830152611cf681611ae0565b9050919050565b60006020820190508181036000830152611d1681611b20565b9050919050565b60006020820190508181036000830152611d3681611b60565b9050919050565b60006020820190508181036000830152611d5681611ba0565b9050919050565b6000602082019050611d726000830184611be0565b92915050565b6000606082019050611d8d6000830186611be0565b611d9a6020830185611be0565b611da76040830184611be0565b949350505050565b600081519050919050565b600082825260208201905092915050565b6000611dd682611f1e565b9150611de183611f1e565b9250827fffffffffffffffffffffffffffffffffffffffffffffffffffffffffffffffff03821115611e1657611e1561201e565b5b828201905092915050565b6000611e2c82611f1e565b9150611e3783611f1e565b925082611e4757611e4661204d565b5b828204905092915050565b6000611e5d82611f1e565b9150611e6883611f1e565b9250817fffffffffffffffffffffffffffffffffffffffffffffffffffffffffffffffff0483118215151615611ea157611ea061201e565b5b828202905092915050565b6000611eb782611f1e565b9150611ec283611f1e565b925082821015611ed557611ed461201e565b5b828203905092915050565b6000611eeb82611efe565b9050919050565b60008115159050919050565b600073ffffffffffffffffffffffffffffffffffffffff82169050919050565b6000819050919050565b6000611f3382611f3a565b9050919050565b6000611f4582611efe565b9050919050565b6000611f5782611f5e565b9050919050565b6000611f6982611efe565b9050919050565b60005b83811015611f8e578082015181840152602081019050611f73565b83811115611f9d576000848401525b50505050565b60006002820490506001821680611fbb57607f821691505b60208210811415611fcf57611fce61207c565b5b50919050565b6000611fe082611f1e565b91507fffffffffffffffffffffffffffffffffffffffffffffffffffffffffffffffff8214156120135761201261201e565b5b600182019050919050565b7f4e487b7100000000000000000000000000000000000000000000000000000000600052601160045260246000fd5b7f4e487b7100000000000000000000000000000000000000000000000000000000600052601260045260246000fd5b7f4e487b7100000000000000000000000000000000000000000000000000000000600052602260045260246000fd5b6000601f19601f8301169050919050565b6120c581611ee0565b81146120d057600080fd5b50565b6120dc81611ef2565b81146120e757600080fd5b50565b6120f381611f1e565b81146120fe57600080fd5b5056fea264697066735822122042fe83369d7a81f67fd55c8d6ea472ad8c9931598b89625c438756067565be9664736f6c63430008000033",
  "immutableReferences": {},
  "source": "pragma solidity ^0.8.0;\nimport \"./XToken.sol\";\nimport \"./DaiToken.sol\";\n\ncontract TokenFarm {\n    string public name = \"X Token Farm\";\n    XToken public xToken;\n    DaiToken public daiToken;\n    address public owner;\n    address[] public stakers;\n    uint256 internal tokenBurnRate = 2;\n    uint256 public constant duration = 1 days;\n    uint256 public constant penaltyRate = 20;\n    FarmInfo public farmInfo;   \n    \n    mapping(address => uint256) public stakingBalance;\n    mapping(address => uint256) public stakingTimestamp;\n    mapping(address => bool) public hasStaked;\n    mapping(address => bool) public isStaking;\n    mapping(address => uint256) public poolShareRatio;\n    \n    struct FarmInfo {\n        uint256 blockReward;\n        uint256 lastRewardBlock;  // Last block number that reward distribution occurs.\n        uint256 farmableSupply; // set in init, total amount of tokens farmable\n    }\n\n    constructor(XToken _xToken, DaiToken _daiToken, uint256 _blockReward) public {\n        xToken = _xToken;\n        daiToken = _daiToken;\n        farmInfo.blockReward = _blockReward;\n        owner = msg.sender;\n    }\n\n    // Stakes Tokens\n    function stakeTokens(uint256 _amount) public {\n        require(_amount > 0, \"amount cannot be 0\");\n        updateRewardTokens(farmInfo.blockReward);\n        daiToken.transferFrom(msg.sender, address(this), _amount); // Stake dai token\n        stakingBalance[msg.sender] = stakingBalance[msg.sender] + _amount; //Update staking balance\n        stakingTimestamp[msg.sender] = block.timestamp;\n        farmInfo.lastRewardBlock = block.number;\n\n        if (!hasStaked[msg.sender]) {\n            stakers.push(msg.sender);\n        }\n\n        //Update staking status\n        isStaking[msg.sender] = true;\n        hasStaked[msg.sender] = true;\n\n        xToken.transfer(msg.sender, _amount * tokenBurnRate);\n        getTotalBalance();\n        getPoolShareRatio();\n    }\n\n    // Unstacking Tokens\n    function unstakeTokens() public {\n        uint256 balance = stakingBalance[msg.sender];\n        require(balance > 0, \"staking balance cannot be 0\");\n        uint256 end = stakingTimestamp[msg.sender] + duration;\n        require(block.timestamp >= end, \"too early to withdraw Tokens\");\n        daiToken.transfer(msg.sender, balance); // Stake dai token\n        xToken.transferFrom(msg.sender, address(this), balance); //return x token\n\n        stakingBalance[msg.sender] = 0;\n        isStaking[msg.sender] = false;\n        getTotalBalance();\n        getPoolShareRatio();\n    }\n\n    // Issuing Tokens\n    function issueTokens(uint256 _amount) public {\n        require(_amount > 0, \"amount cannot be 0\");\n\n        // Only owner can call this function\n        require(msg.sender == owner, \"caller must be owner\");\n        getTotalBalance();\n\n        // uint256 totalBalance = daiToken.balanceOf(address(this));\n\n        //Issue tokens to all stakers\n        for (uint256 i = 0; i < stakers.length; i++) {\n            address recipient = stakers[i];\n            uint256 balance = stakingBalance[recipient];\n            uint256 ratio = (balance * 100) / farmInfo.farmableSupply;\n            uint256 amount = (_amount * ratio) / 100;\n\n            uint256 blknumbernow = block.number;\n            uint256 diffofblk = blknumbernow - farmInfo.lastRewardBlock;\n            uint256 totalamount = amount * diffofblk;\n\n            if (totalamount > 0) {\n                stakingBalance[recipient] = stakingBalance[recipient] + totalamount; //Update staking balance\n                xToken.transfer(recipient, _amount * tokenBurnRate);\n            }\n        }\n        farmInfo.lastRewardBlock = block.number;\n    }\n\n    // Issuing Tokens for internal\n    function updateRewardTokens(uint256 _amount) internal {\n        require(_amount > 0, \"amount cannot be 0\");\n        getTotalBalance();\n\n\n        if( farmInfo.farmableSupply == 0){\n            return;\n        }\n        //update reward tokens to all stakers\n        for (uint256 i = 0; i < stakers.length; i++) {\n            address recipient = stakers[i];\n            uint256 balance = stakingBalance[recipient];\n            uint256 ratio = (balance * 100) / farmInfo.farmableSupply;\n            uint256 amount = _amount * ratio / 100;\n            \n            uint256 blknumbernow = block.number;\n            uint256 diffofblk = blknumbernow - farmInfo.lastRewardBlock;\n            uint256 totalamount = amount * diffofblk;\n\n            if (totalamount > 0) {\n                stakingBalance[recipient] = stakingBalance[recipient] + totalamount; //Update staking balance\n                xToken.transfer(recipient, totalamount * tokenBurnRate);\n            }\n        }\n        farmInfo.lastRewardBlock = block.number;\n    }\n    \n    // Emergency Unstacking Tokens to withdraw LP tokens with penalty\n    function emergencyUnstakeTokens() public {\n        uint256 balance = stakingBalance[msg.sender];\n        require(balance > 0, \"staking balance cannot be 0\");\n        uint256 penalty = balance * penaltyRate/100;\n        uint256 remainingBalance = balance - penalty;\n        daiToken.transfer(msg.sender, remainingBalance); // Unstake dai token\n        daiToken.transfer(address(this), penalty); // Unstake penalty dai token\n        xToken.transferFrom(msg.sender, address(this), balance); //return x token\n\n        stakingBalance[msg.sender] = 0;\n        isStaking[msg.sender] = false;\n        getTotalBalance();\n        getPoolShareRatio();\n    }\n    \n    function getTotalBalance() public {\n        uint256 totalBalance;\n        for (uint256 i = 0; i < stakers.length; i++) {\n            address recipient = stakers[i];\n            uint256 balance = stakingBalance[recipient];\n            totalBalance = balance + totalBalance;\n        }\n        farmInfo.farmableSupply = totalBalance;\n    }\n    \n    function getPoolShareRatio() public {\n        if( farmInfo.farmableSupply == 0){\n            for (uint256 i = 0; i < stakers.length; i++) {\n                address recipient = stakers[i];\n                poolShareRatio[recipient] = 0;\n            }\n        }\n        else {\n            for (uint256 i = 0; i < stakers.length; i++) {\n                address recipient = stakers[i];\n                uint256 balance = stakingBalance[recipient];\n                uint256 ratio = (balance * 100) / farmInfo.farmableSupply;\n                poolShareRatio[recipient] = ratio;\n            }\n        }\n    }\n}",
  "sourcePath": "/home/ubuntu/Desktop/Blockchain Talent Program/YieldFarming/Yield_Farming_compound/src/contracts/TokenFarm_compund.sol",
  "compiler": {
    "name": "solc",
    "version": "0.8.0+commit.c7dfd78e.Emscripten.clang"
  },
  "schemaVersion": "3.4.1",
  "updatedAt": "2021-07-01T09:43:51.695Z",
  "networkType": "ethereum",
  "devdoc": {
    "kind": "dev",
    "methods": {},
    "version": 1
  },
  "userdoc": {
    "kind": "user",
    "methods": {},
    "version": 1
  }
}